:020000040800F2
:1000000000000220650F0008A90C0008AD0C0008D4
:10001000B10C0008B50C0008B90C00080000000085
:10002000000000000000000000000000BD0C0008FF
:10003000C10C000800000000C50C0008C90C000835
:10004000B50F0008B50F0008B50F0008B50F000880
:10005000B50F0008B50F0008B50F0008B50F000870
:10006000B50F0008B50F0008B50F0008B50F000860
:10007000B50F0008B50F0008B50F0008B50F000850
:10008000B50F0008B50F0008B50F0008B50F000840
:10009000B50F0008B50F0008B50F0008B50F000830
:1000A000B50F0008B50F0008B50F0008B50F000820
:1000B000B50F0008B50F0008B50F0008B50F000810
:1000C000B50F0008B50F0008B50F0008B50F000800
:1000D000B50F0008CD0C0008B50F0008B50F0008DB
:1000E000B50F0008B50F0008B50F0008B50F0008E0
:1000F000B50F0008B50F0008B50F0008B50F0008D0
:10010000B50F0008B50F0008B50F0008B50F0008BF
:10011000B50F0008B50F0008B50F0008B50F0008AF
:10012000B50F0008B50F0008D90C0008B50F00087E
:10013000B50F00080000000000000000B50F000827
:10014000B50F0008B50F0008B50F0008B50F00087F
:10015000B50F0008B50F0008B50F0008E50C000842
:10016000B50F0008B50F0008F10C0008FD0C0008E1
:10017000B50F0008090D0008B50F000800000000C9
:1001800000000000B50F00080000000000000000A3
:10019000B50F00080000000000000000B50F0008C7
:1001A000000000000000000000000000B50F000883
:1001B000B50F0008B50F0008B50F0008B50F00080F
:0401C000B50F00086F
:1001D00010B5054C237833B9044B13B10448AFF381
:1001E00000800123237010BDF401002000000000F6
:1001F000FC82000808B5034B1BB103490348AFF369
:10020000008008BD00000000F8010020FC8200080A
:1002100001F0FF01102A2BDB10F0070F08D010F8B7
:10022000013B013A8B422DD010F0070F42B3F6D1BB
:10023000F0B441EA012141EA014122F007047FF0D4
:1002400000070023F0E80256083C85EA010586EA2B
:10025000010685FA47F5A3FA87F586FA47F6A5FA67
:1002600087F68EB9EED1F0BC01F0FF0102F0070273
:1002700032B110F8013B013A83EA010313B1F8D11E
:100280000020704701387047002D06BF35460338FF
:10029000073815F0010F07D1013015F4807F02BF38
:1002A000013015F4C03F0130F0BC0138704700BF89
:1002B00053B94AB9002908BF00281CBF4FF0FF31CD
:1002C0004FF0FF3000F070B9ADF1080C6DE904CECD
:1002D00000F006F8DDF804E0DDE9022304B0704721
:1002E0002DE9F047089E0D4604460F46002B4AD1E3
:1002F0008A42944665D9B2FA82F343B102FA03FC0A
:10030000C3F120029F4020FA02F217439C404FEABB
:100310001C4E1FFA8CF5B7FBFEF1220C0EFB117779
:1003200042EA074201FB05F090420AD91CEB0202A7
:1003300001F1FF3780F01C81904240F219810239AF
:100340006244121AA4B2B2FBFEF00EFB102244EA81
:10035000024400FB05F5A5420AD91CEB040400F198
:10036000FF3280F00781A54240F2048164440238E4
:1003700040EA0140641B00211EB1DC400023C6E9B5
:100380000043BDE8F0878B4208D9002E00F0ED80D5
:100390000021C6E900050846BDE8F087B3FA83F1FD
:1003A000002949D1AB4202D3824200F2F880841A7C
:1003B00065EB030201201746002EE2D0C6E9004794
:1003C000DFE702B9FFDEB2FA82F3002B40F0908043
:1003D0008A1A4FEA1C471FFA8CFE0121B2FBF7F57F
:1003E00007FB1520220C42EA00420EFB05F090426A
:1003F00008D91CEB020205F1FF3802D2904200F24C
:10040000CB804546121AA4B2B2FBF7F007FB1022CC
:1004100044EA02440EFB00FEA64508D91CEB040486
:1004200000F1FF3202D2A64500F2BB801046A4EBD9
:100430000E0440EA05409FE7C1F120078B4022FAF5
:1004400007FC4CEA030C05FA01F420FA07F3FD401F
:100450004FEA1C492343B5FBF9F81FFA8CFE09FB50
:1004600018551C0C44EA054408FB0EF5A54202FA97
:1004700001F200FA01F00BD91CEB040408F1FF3A79
:1004800080F08880A54240F28580A8F1020864448B
:10049000641B9DB2B4FBF9F309FB134445EA044421
:1004A00003FB0EFEA64508D91CEB040403F1FF353F
:1004B0006CD2A6456AD9023B644443EA0843A3FBD5
:1004C0000295A4EB0E04AC42C846AE4656D353D0B8
:1004D00056B1B0EB080264EB0E0404FA07F7CA4009
:1004E000CC401743C6E9007418460021BDE8F087E8
:1004F000C3F1200102FA03FC20FA01F225FA01F10E
:100500009D402A434FEA1C471FFA8CFEB1FBF7F0CF
:1005100007FB1015110C41EA054100FB0EF58D4259
:1005200004FA03F408D91CEB010100F1FF382FD2C3
:100530008D422DD902386144491B92B2B1FBF7F5C7
:1005400007FB151142EA014205FB0EF1914208D961
:100550001CEB020205F1FF3816D2914214D9023D7C
:100560006244521A45EA004138E73146304608E70E
:100570003946E6E61046FBE64845A9D2B9EB020843
:1005800065EB0C0E013BA3E74546EAE72B4694E7F3
:100590004046D1E7D0467BE7023D624432E7084659
:1005A0000AE76444023842E7704700BF044B054A3B
:1005B0009A6000204FF40071186099800120704704
:1005C000100200201C0200200378072B2BD070B5EE
:1005D000174A184D2B8812889B1A9BB2502B1DD09E
:1005E000154E33880C46014614489BB2224600EB58
:1005F000432007F022FA3388114A01339BB233803B
:1006000033889BB2502B04BF002333802B880133E7
:100610009BB201212B801170204670BD094B012235
:100620001A70002070BD084B01221A70002070471C
:1006300066A4002064A4002068A4002064040020B4
:100640001E0400201C04002010490120164B1749ED
:100650001A880B8892B29BB29A4220D0144A13880F
:100660009BB203F1010C1FFA8CFC10B4A2F800C07D
:10067000B2F800C01FFA8CFCBCF1500F04BF00247C
:1006800014800A880B4C013292B20A800A4A34F86C
:100690001340046002EB43205DF8044B7047074BA6
:1006A00001221A70002070476C4401206E44012022
:1006B00074440120784401206CA40020704401207F
:1006C000024B02689A4200D07047FEE700100140DA
:1006D000F8B50268164B9A4200D0F8BD154E164B7D
:1006E00032781F6804460D4612B9144A0121117070
:1006F000134A14491448974218BF11461960202222
:100700000023337003F0D0F92946384606F0A6FBE3
:1007100050B10E4B01221A70636B002BDDD0636B5E
:10072000012B18BF636BF8BD01233370F4E700BFE2
:1007300000100140600400201845012061040020E1
:100740002004002040040020604801201D040020F7
:100750002DE9F84F604BDFF8C0911B7823B999F869
:100760000030002B00F097805C4BDFF8B0B15A49A5
:100770001A8800230B7089F80030BBF8003092B261
:100780009BB29A4200F08780554F564C564EDFF888
:1007900090A1DFF89081554D3B889BB25902625C75
:1007A0007E2A1AD14C4A99F800C092F800E07F20C6
:1007B00002E0625C7E2A0ED101332A886054502BFD
:1007C00008BF002392B29A424FEA4321F1D1BCF113
:1007D000000F68D1FEE789F800C03888318880B200
:1007E00089B204EB40200AEB412104F017FF338863
:1007F0003F4A9BB222F813003B8801339BB23B80F7
:100800003B889BB2502B04BF00233B80BBF80030D9
:1008100001339BB2ABF80030338801339BB2338095
:1008200033889BB2502B04BF00233380B8F80030CC
:1008300001339BB2A8F800302E4B1B781BB32E4B14
:10084000B8F800201B8892B29BB29A421BD02B4A68
:100850002B48118889B24B1C9BB2138013889BB222
:10086000502B04BF00231380234A138801339BB20B
:100870001380204A002313701D4B33F811200AEB1C
:10088000412105F0E3FD154B1A88BBF8003092B208
:100890009BB29A4280D11B4C237833B91A4C2378EF
:1008A0007BB9BDE8F88FF44683E7184806F05AFF95
:1008B0000021174B2170144C01221A702378002B51
:1008C000EFD0144806F04EFF114B00210122217099
:1008D0001A70BDE8F88F00BF1E04002064A4002039
:1008E0006AA40020640400207244012068A400204F
:1008F00078440120704401206E440120744401209A
:1009000020450120610400201D04002014830008FC
:10091000600400202C8300081C04002066A4002032
:100920006CA400206C44012038B5214C214D04F00A
:1009300093FE204601224FF4807100F0EBFF01226C
:100940004FF40071204600F0E5FF4FF4FA7003F019
:10095000B3FE204600224FF4007100F0DBFF20467A
:1009600000224FF4807100F0D5FF134C1348144A55
:10097000144900232B8023800380134C1380134AD7
:10098000238013481380134A134D144C03801380A3
:1009900001222A701248134D2160134C02702B70F3
:1009A0002370BDE838401148202203F07DB800BF15
:1009B0000004024068A400206AA4002064A400206F
:1009C00066A4002020040020724401207444012009
:1009D0006C4401206E440120704401201845012020
:1009E00060040020610400201D04002060480120F4
:1009F00000B583B000220A4B0192196B41F48001CB
:100A000019631B6B03F4800301933A201146019B89
:100A100000F046FB3A2003B05DF804EB00F07EBB2B
:100A2000003802402DE9F04100248AB0CDE90444A9
:100A3000CDE90644364B009408941A6B354D364F79
:100A4000364E42F080021A631A6B02F08002009266
:100A5000009A01941A6B42F004021A631A6B02F0B6
:100A600004020192019A02941A6B42F001021A6385
:100A70001A6B02F001020292029A03941A6B42F07E
:100A800002021A631B6B03F00203039322462846FB
:100A90004FF40071039B00F03DFF224638464FF4AF
:100AA000C85100F037FF224630464FF4407100F045
:100AB00031FF4FF00308284604A901254FF40073C5
:100AC000049306940595CDF81C8000F059FD384636
:100AD00004A94FF4C8530493CDE90554CDF81C8004
:100AE00000F04EFD802204A930460023CDE9042306
:100AF000069400F045FD4FF4407304A93046CDE95B
:100B00000435CDE9064400F03BFD0AB0BDE8F081B4
:100B10000038024000080240000002400004024089
:100B200010B5002396B0CDE90A33CDE90C33CDE9F9
:100B30000333CDE90533284901930793086C274A0D
:100B400040F080500864096C01F0805101910199D6
:100B50000293136843F4404313609FED1B7B1368BB
:100B60008DED087B03F440439FED197B0293022136
:100B700002980E914FF480040822B42308A8CDE90E
:100B80000F428DED127B1491119302F06FF908B1B1
:100B900072B6FEE702F02AF8034608B172B6FEE725
:100BA0000F210322CDE903124FF4A0544FF48052D9
:100BB00003A80521CDE90534079202F053F808B1E6
:100BC00072B6FEE716B010BD010000000000010083
:100BD00002000000020000000038024000700040E7
:100BE00008B500F00DFAFFF79BFFFFF71BFFFFF7BB
:100BF000FFFE00F0E5F800F0FFF8FFF7D7FC0E4924
:100C00000E48012205F036FC08B172B6FEE70C4929
:100C10000A4805F055FC094805F07CFC08B172B69D
:100C2000FEE7084806F09EFD074806F09BFDFFF72B
:100C30007BFEFFF78DFDFCE77800002020450120BA
:100C400034000020448300086483000800B583B0AA
:100C50004FF0FF330190012201A9034802F0AAFBE3
:100C6000019803B05DF804FBA848012072B6FEE7C6
:100C700082B00C4B002100915A6C42F480425A64BD
:100C80005A6C02F480420092009A01911A6C42F070
:100C900080521A641B6C03F080530193019B02B0D5
:100CA000704700BF00380240FEE700BFFEE700BF0C
:100CB000FEE700BFFEE700BFFEE700BF704700BFD2
:100CC000704700BF704700BF00F0B4B9014802F0A0
:100CD0000DBD00BF60480120014800F07BBB00BF94
:100CE00000480120014802F001BD00BFA8480120D2
:100CF000014801F04BB800BF184B0120014801F03A
:100D000045B800BF184B0120014801F03FB800BFB3
:100D1000184B012070B5161E07DD0C468D19AFF378
:100D2000008004F8010BA542F9D1304670BD00BF28
:100D300070B5161E07DD0C468D1914F8010BFFF770
:100D400085FFAC42F9D1304670BD00BF4FF0FF3097
:100D5000704700BF4FF400534B600020704700BF46
:100D600001207047002070470C490D4A0B6810B5F0
:100D70000C4C121B2BB11844904207D8086018463F
:100D800010BD094B0B6018449042F7D906F028FEBD
:100D90000C2303604FF0FF33184610BDFC470120C1
:100DA000000002200004000048530120034AD2F84A
:100DB000883043F47003C2F88830704700ED00E0DB
:100DC00010B50B480B4C00234FF4E1310422C0E96D
:100DD0000041C0E90233C0E90432C0E9063302F041
:100DE0004BFA00B910BDBDE81040FFF73FBF00BF90
:100DF000604801200010014010B50B480B4C002347
:100E00004FF4E1310C22C0E90041C0E90233C0E9EE
:100E10000432C0E9063302F02FFA00B910BDBDE874
:100E20001040FFF723BF00BFA84801200014014075
:100E300070B50368444A8AB000249342CDE9044463
:100E4000CDE90644089404D0404A93424ED00AB0FB
:100E500070BD3F4B00945A6C3E4E42F010025A64F3
:100E60005A6C02F010020092009A01941A6B42F040
:100E700001021A631B6B03F0010301934FF4C0627C
:100E80000223CDE90423032307930546019B32483F
:100E9000072304A9089300F073FB304A34634FF032
:100EA0000063C6E900234FF480434FF48062B361CE
:100EB0000423C6E9042473624FF44032022330460F
:100EC000C6E90244C6E90742C6E90A3400F04EF911
:100ED000002836D100220321EE632520B56300F0FF
:100EE000DFF8252000F01AF90AB070BD184B029403
:100EF0005A6C1B4842F020025A645A6C02F02002DD
:100F00000292029A03941A6B42F004021A631B6B5A
:100F100003F004030393C0220223CDE9042304A9B0
:100F200008230322CDE90723039D00F029FB224675
:100F30000421472000F0B4F8472000F0EFF80AB091
:100F400070BDFFF793FEC5E700100140001401409B
:100F50000038024000480120000002404064024086
:100F600000080240DFF834D0FFF720FF0C480D499D
:100F70000D4A002302E0D458C4500433C4188C42F4
:100F8000F9D30A4A0A4C002301E013600432A2425A
:100F9000FBD306F02BFDFFF723FE70470000022075
:100FA00000000020F40100207C840008F4010020EF
:100FB00048530120FEE7000038B50E4A0E4B127868
:100FC0001B6805464FF47A70B0FBF2F0B3FBF0F00B
:100FD00000F0B2F808B90F2D01D9012038BD044640
:100FE000024629464FF0FF3000F05AF8034B2046E6
:100FF0001D6038BD04000020000000200800002013
:1010000008B50B4B1A6842F400721A601A6842F471
:1010100080621A601A6842F480721A60032000F03D
:101020002DF80F20FFF7C8FFFFF722FE002008BDB4
:10103000003C0240034A044B11681B780B441360C8
:10104000704700BFF048012004000020014B1868E1
:10105000704700BFF048012038B50446FFF7F6FF9F
:10106000631C054602D0044B1B781C44FFF7EEFFBF
:10107000431BA342FAD338BD040000200749CA68C5
:1010800003024FF6FF0003F4E0630240134343F012
:10109000BF6343F40033CB60704700BF00ED00E056
:1010A0001C4BDB68C3F3022300B5C3F1070EBEF18E
:1010B000040F03F1040C28BF4FF0040EBCF1060F1F
:1010C0001BD9033B4FF0FF3C0CFA03FC22EA0C0255
:1010D0004FF0FF3C0CFA0EFC21EA0C01994000286D
:1010E00041EA02010CDB00F16040090100F56140BA
:1010F000C9B280F800135DF804FB00221346E7E74D
:10110000054B00F00F0009010344C9B219765DF8E0
:1011100004FB00BF00ED00E0FCEC00E0002807DB72
:10112000044A4109012300F01F00834042F82130A6
:10113000704700BF00E100E00138B0F1807F10D2BD
:1011400010B44FF0E023084C58614FF0F00C84F8D5
:1011500023C00022072110469A615DF8044B1961F3
:1011600070470120704700BF00ED00E038B504462D
:10117000FFF76CFF002C52D023680022022184F874
:10118000351084F834201A6822F0010205461A60EE
:1011900005E0FFF75BFF431B052B39D823681A686E
:1011A000D107F6D4D4E90120E16802430A43D4E927
:1011B0000451A0692A430A43E1691D6802430A43B6
:1011C00033492940256A2A430A43616A042928D001
:1011D0001A605A6922F007021143D8B22D4A5961A8
:1011E0001038A2FB005212092B4923F47F73895C4B
:1011F000E16523F003035F2888BF04333F228A4060
:10120000A36500209A600123606584F8353038BDFD
:1012100003232022626584F83530184638BD01204A
:1012200038BDD4E90B512943114319605969A26AA9
:1012300021F00701114341F00401002DCDD078B118
:10124000B0F5005F16D0022A03D9032AC5D1EA01FE
:10125000C3D501234022626584F83530184638BD75
:10126000012A03D032F00202B7D1F0E7B5F1C07F16
:10127000B3D1EEE7032AB0D801A050F822F000BFA6
:10128000531200084F120008531200086D12000894
:101290003F8010F0ABAAAAAA9C83000870B490F813
:1012A0003440856D012C35D090F835404FF0010C5D
:1012B000644580F834C005D0002380F8343070BC19
:1012C00002207047022680F83560046800264665D3
:1012D000266826F48026266063608368402B0EBF54
:1012E000A260A160E260C26D08BFE1603F2393404D
:1012F000AB602368026C43F0160323601AB12368C5
:1013000043F008032360236843F0010300202360B7
:1013100070BC7047022070BC704700BF70B50446B7
:10132000866DFFF793FE94F83530022B06D08023AC
:101330006365002384F83430012070BD23681A6887
:1013400022F016021A605A6922F080025A61226C59
:10135000054642B31A6822F008021A601A6822F0A1
:1013600001021A6005E0FFF771FE431B052B10D840
:1013700023681B6813F00103F5D1E16D3F228A4019
:10138000184601210023B26084F8351084F8343007
:1013900070BD032320226265184684F8353000238F
:1013A00084F8343070BDA26C002AD3D1D6E700BFD8
:1013B00090F83530022B03D080234365012070471D
:1013C0000268052380F83530136823F001030020FC
:1013D00013607047F0B583B0674A876D16680023C5
:1013E0000193C36D3D6808229A402A42044603D007
:1013F00001680868400778D401229A402A4203D045
:101400002168496908066AD404229A402A4203D016
:101410002168096889075CD410229A402A4203D0C7
:1014200021680868000741D420229A402A4214D03B
:1014300021680868C00610D5BA6094F83520052ADE
:1014400063D00B6813F4802F0B687ED0190340F132
:101450008980E36B0BB120469847636D23B3636DBE
:10146000DA071AD522684549052384F83530136810
:10147000A1FB061623F00103B60A136002E013680D
:10148000DB0704D5019B0133B3420193F7D9012255
:10149000002384F8352084F83430E36C23B12046EF
:1014A00003B0BDE8F040184703B0F0BDBA600A6869
:1014B00012F4802F0A6822D1D20503D40A6822F0E0
:1014C00008020A60226C002AAED020469047E36DE5
:1014D000AAE7BA60626D42F0040262659CE7BA60F6
:1014E000626D42F0020262658EE7086820F0040037
:1014F0000860BA60626D42F0010262657CE7110328
:10150000E0D5A26C002AE0D18EE70A6822F016022C
:101510000A604A6922F080024A61226C3AB30A6882
:1015200022F008020A603F2202FA03F3216DBB6039
:101530000122002384F8352084F834300029B3D008
:10154000204603B0BDE8F040084713F4807380D113
:101550000A6822F010020A60012284F8352084F81B
:10156000343076E7636C002B7FF475AF75E7A26CBF
:10157000002AD4D1D7E700BF00000020B5814E1B60
:101580002DE9F04F00220C68DFF818A27E4E85B0DE
:101590001346894605E00133102B02F1020200F0E8
:1015A00085800121994001EA040BA143F3D1D9F8C8
:1015B00004C00CF003014D1E012D7AD9032940F01F
:1015C000BB809140CD4307683D4029431CF4403F18
:1015D0000160E0D000210391DAF8441041F4804129
:1015E000CAF84410DAF8441001F4804103910399D9
:1015F00023F0030101F1804101F59C3103F0030761
:101600008D68BF004FF00F0E0EFA07FE25EA0E0898
:101610005E4DA8421FD005F58065A84200F090807D
:101620005B4DA84200F093805A4DA84200F096808E
:10163000594DA84200F09980584DA84200F09C8076
:10164000574DA8420CBF4FF0060E4FF0070E0EFA92
:1016500007F748EA0708C1F80880B1686FEA0B0588
:101660001CF4801F0CBF29404BEA0101B160F168F6
:101670001CF4001F0CBF29404BEA0101F1607168A6
:101680001CF4003F0CBF29404BEA01017160316836
:101690001CF4803F03F101030CBF29404BEA010118
:1016A000102B316002F102027FF47BAF05B0BDE880
:1016B000F08FD9F80C50D0F808E005FA02F70325AE
:1016C00005FA02F82EEA080E47EA0E078760476817
:1016D00027EA0B0ECCF300179F4047EA0E076FEA8C
:1016E00008054760C76807EA050ED9F808709740F3
:1016F00047EA0E070229C76001FA02F17FF463AFDF
:101700004FEAD30E00EB8E0E03F00708DEF82070D0
:101710000097D9F810704FEA880807FA08F7019780
:101720000F2707FA08F8009F27EA0808019F47EAF1
:101730000807CEF8207046E703259540ED43D1E732
:101740004FF0010E0EFA07F748EA070883E74FF05B
:10175000020E0EFA07F748EA07087CE74FF0030E7F
:101760000EFA07F748EA070875E74FF0040E0EFA7D
:1017700007F748EA07086EE74FF0050E0EFA07F77D
:1017800048EA070867E700BF003C0140000002404C
:1017900000080240000C0240001002400014024009
:1017A00000180240003802402DE9F04F0023DFF816
:1017B0004C91DFF84C81DFF84CA183B0012702E0A7
:1017C0000133102B73D007FA03F232EA010402EA64
:1017D000010CF5D123F0030505F1804505F59C3595
:1017E00003F00304D5F808E0A4000F26A6404845FE
:1017F000019606EA0E0E5DD050455DD03A4EB042DD
:101800005DD03A4EB0425FD0394EB04261D0394ED1
:10181000B04263D0384EB04214BF4FF0070B4FF0C8
:10182000060B0BFA04F4A6451CD1D8F80040019E23
:1018300024EA0C04C8F80040D8F8044024EA0C0458
:10184000C8F80440D8F80C4024EA0C04C8F80C404E
:10185000D8F8084024EA0C04C8F80840AC6824EA28
:101860000604AC6005685E000324B44025EA040564
:101870000560DD0800EB850503F0070E2E6A4FEAD0
:101880008E0E4FF00F0C0CFA0EFC26EA0C062E62A0
:10189000C56825EA0405C560456825EA020242607C
:1018A0008268013322EA0402102B82608BD103B0DC
:1018B000BDE8F08F0024B6E707FA04F4B3E74FF071
:1018C000020B0BFA04F4AEE74FF0030B0BFA04F42F
:1018D000A9E74FF0040B0BFA04F4A4E74FF0050B53
:1018E0000BFA04F49FE700BF00080240000C02401E
:1018F00000100240001402400018024000000240A4
:10190000003C0140000402400369194214BF012059
:101910000020704702B909048161704730B583B077
:10192000002800F0028290F895340568044603F020
:10193000FF02002B00F0F38128460323B5F1A04FEE
:1019400084F8953404BF0023A37102F0E3F9237CEB
:101950008DF80030251D95E80E00206802F0D4F8BF
:10196000014630B101250223284684F8953403B09E
:1019700030BD206802F0D6F90028F3D12279002A80
:1019800000F0B4814FF48073012AC4E90700A382F8
:10199000E0852076606200F0D08140F20113238759
:1019A000022A4FF00103C4E91000A4F8523084F871
:1019B0003C00A06400F0E2804FF48173A4F85C3036
:1019C000032A4FF00203C4E91900A4F8763084F822
:1019D0006000E06600F0D28040F20313A4F880308B
:1019E000042A4FF00303C4E92200A4F89A3084F8D3
:1019F0008400C4F8900000F0C1804FF48273A4F812
:101A0000A430052A4FF00403C4E92B00A4F8BE302B
:101A100084F8A800C4F8B40000F0B08040F20513C8
:101A2000A4F8C830062A4FF00503C4E93400A4F82E
:101A3000E23084F8CC00C4F8D80000F09F804FF466
:101A40008373A4F8EC30072A4FF00603C4E93D0085
:101A5000A4F8063184F8F000C4F8FC0000F08E8091
:101A600040F207110023A4F81011082A4FF00701D3
:101A7000C4E94633A4F82A1184F81431C4F820319B
:101A80007CD04FF48471A4F83411092A4FF0080176
:101A9000C4E94F33A4F84E1184F83831C4F8443106
:101AA0006CD040F20911A4F858110A2A4FF009012C
:101AB000C4E95833A4F8721184F85C31C4F8683171
:101AC0005CD04FF48571A4F87C110B2A4FF00A0109
:101AD000C4E96133A4F8961184F88031C4F88C31DC
:101AE0004CD040F20B11A4F8A0110C2A4FF00B01BE
:101AF000C4E96A33A4F8BA1184F8A431C4F8B03147
:101B00003CD04FF48671A4F8C4110D2A4FF00C019B
:101B1000C4E97333A4F8DE1184F8C831C4F8D431B1
:101B20002CD040F20D11A4F8E8110E2A4FF00D014F
:101B3000C4E97C33A4F8021284F8EC31C4F8F8311B
:101B40001CD04FF48771A4F80C120F2A4FF00E012D
:101B5000C4E98533A4F8261284F81032C4F81C3284
:101B60000CD040F20F11C4E98E33A4F830120F21CB
:101B7000A4F84A1284F83432C4F840320023012118
:101B8000022AC4E99733C4E9A033A4F8543284F894
:101B90005832C4F86432A4F8781284F87C32C4F85D
:101BA000883200F0A3800221032AC4E9A933A4F8F3
:101BB0009C1284F8A032C4F8AC3200F09780032164
:101BC000042AC4E9B233A4F8C01284F8C432C4F8B9
:101BD000D03200F08B800421052AC4E9BB33A4F87D
:101BE000E41284F8E832C4F8F4327FD00521062AE2
:101BF000C4E9C433A4F8081384F80C33C4F81833C8
:101C000074D00621072AC4E9CD33A4F82C1384F834
:101C10003033C4F83C3369D00721082AC4E9D633ED
:101C2000A4F8501384F85433C4F860335ED008210C
:101C3000092AC4E9DF33A4F8741384F87833C4F8AC
:101C4000843353D009210A2AC4E9E833A4F898134D
:101C500084F89C33C4F8A83348D00A210B2AC4E97D
:101C6000F133A4F8BC1384F8C033C4F8CC333DD0AE
:101C700000230B210C2AC4E9FA33A4F8E01384F8FA
:101C8000E433C4F8F03331D00C210D2AA4F8041445
:101C900084F80834C4F80C34C4F81034C4F814348C
:101CA00024D00D210E2AA4F8281484F82C34C4F86A
:101CB0003034C4F83434C4F8383417D00E210F2A25
:101CC000A4F84C1484F85034C4F85434C4F858348C
:101CD000C4F85C340AD00F22A4F8702484F8743459
:101CE000C4F87834C4F87C34C4F88034207C95E897
:101CF0000E008DF80000206802F04CF80546002820
:101D00007FF430AE237B60740122934284F89524E3
:101D10000FD0206802F050FC284603B030BD80F898
:101D2000942405F0B5F8206807E60125284603B09D
:101D300030BD204600F042FFEBE7C4E99700A4F86D
:101D4000540284F85802C4F86402CFE710B590F842
:101D50009434012B0446006816D0012384F894348F
:101D6000C3685B0602D5637B012B08D001F0CAFF74
:101D7000206802F011FC002084F8940410BD836BED
:101D800043F480338363F1E7022010BD2DE9F04F67
:101D9000056889B00446284602F04CFC10B109B031
:101DA000BDE8F08F8346206802F016FC0028F6D0CC
:101DB000D5F808382068C3F30D23C4F8D43402F0F2
:101DC0000BFC10F0020F206805F5006303931EBFA3
:101DD000436903F00203436102F0FEFB10F0100FB1
:101DE000206812D0836923F0100383612E6AC6F342
:101DF0004343022B06F00F0700F0E783062B00F0A9
:101E00002583836943F01003836102F0E5FB070338
:101E100000F18382206802F0DFFB460300F12B8291
:101E2000206802F0D9FB0028C0F29C81206802F0F3
:101E3000D3FB030500F15781206802F0CDFB0601BA
:101E400014D52268536903F00063536194F8CC34CD
:101E5000002B40F0AE82012184F8CC14536DC3F303
:101E60008303C4F8D034204600F0BEFE206802F0A0
:101E7000B3FBC00400F1A081206802F0ADFB10F4B8
:101E8000005F206840F0818102F0A6FB010700F1AD
:101E9000E981206802F0A0FB020671D5AB6923F04E
:101EA0008003AB612379012B6AD994F87B22012A44
:101EB00000F0ED83022B63D994F89F22012A00F0F1
:101EC0000184032B5CD994F8C322012A00F0B78265
:101ED000042B55D994F8E722012A00F0CA82052B79
:101EE0004ED994F80B23012A00F02884062B47D9F9
:101EF00094F82F23012A00F03584072B40D994F859
:101F00005323012A00F04C84082B39D994F8772305
:101F1000012A00F05984092B32D994F89B23012A15
:101F200000F066840A2B2BD994F8BF23012A00F015
:101F300073840B2B24D994F8E323012A00F08084C6
:101F40000C2B1DD994F80724012A00F081840D2B55
:101F500016D994F82B24012A00F0A1840E2B0FD956
:101F600094F84F24012A00F0A8840F2B08D994F884
:101F70007334012B04D1206804F58E6102F022FA3B
:101F8000206802F029FBC30240F1AB802379012BCA
:101F900040F2898094F83C20D5F82019012A00F0FD
:101FA0001782022B7FD994F86020D5F84019012AB6
:101FB00000F02182032B76D994F88420D5F860199B
:101FC000012A00F02482042B6DD994F8A820D5F8BA
:101FD0008019012A00F02782052B64D994F8CC20BF
:101FE000D5F8A019012A00F04683062B5BD994F896
:101FF000F020D5F8C019012A00F05883072B52D9D8
:1020000094F81421D5F8E019012A00F06383082B15
:1020100049D994F83821D5F8001A012A00F06683CE
:10202000092B40D994F85C21D5F8201A012A00F038
:1020300079830A2B37D994F88021D5F8401A012AE0
:1020400000F084830B2B2ED994F8A421D5F8601AC4
:10205000012A00F099830C2B25D994F8C821D5F8D2
:10206000801A012A00F0A4830D2B1CD994F8EC21CE
:10207000D5F8A01A012A00F0AF830E2B13D994F8DB
:102080001022D5F8C01A012A00F0BA830F2B0AD902
:1020900094F83422D5F8E01A012A00F0C583102BF9
:1020A00001D9D5F8003B2068436903F480134361EC
:1020B00002F092FA870221D4206802F08DFA4000E3
:1020C00000F1C780206802F087FA41077FF567AE0C
:1020D00023685D686A0700F19A825A682A435A6049
:1020E0005DE62068E4E7039B9B68DF0700F18B82D5
:1020F0002068436903F4006343619EE694F804C0DA
:10210000BCF1010F28D905F532622346012106E012
:102110000131614502F1200203F124031CD093F840
:102120007C0216680128F3D1002EF1DAD4F8D474B9
:1021300006F4803607F00107BE42E9D183F87B023E
:10214000A86940F08000A86168690606E0D4039A97
:10215000536843F4007353602068436903F4001329
:102160004361AAE7039A536823F00103536094F88C
:10217000CC34012B00F03881204604F053FF206856
:10218000436903F00043436151E602F057FA2068C7
:1021900001F046FFE071266800F002FEE279014698
:1021A000304601F035FD204604F00EFF20684369FB
:1021B00003F40053436167E6039A2068536823F0F1
:1021C00001035360102101F003FF2079E0B105F510
:1021D00010634FF67F3199601A6822F400121A607A
:1021E000C3F80812D3F8002222F40012C3F8002228
:1021F000D3F800220BF1010B42F000628345C3F8D3
:10220000002203F12003E6D1039AD36943F00113BE
:10221000D361E37B002B40F0D080536943F400533B
:1022200043F02B035361136943F00B031361D5F89B
:102230000038206823F4FE63C5F80038A17904F261
:102240009C4202F00DFA2068436903F48053436115
:1022500013E6204604F0F2FE2068436903F0804351
:10226000436130E7204604F0ABFE2068436903F089
:10227000080343610EE6206802F0BAF980460028A0
:102280003FF4CEAD4FF0000A20680495274605F5CF
:1022900010695646CDF814B009E05FEA580806F117
:1022A000010607F1240709F1200900F0EC8018F07D
:1022B000010FF2D05FFA86FA514602F0ABF9C1077E
:1022C000054613D5039901204B6B06F00F0200FA67
:1022D00002F223EA02034B63C9F80800A1798142A4
:1022E00000F09A815146204604F060FE2A0744BF60
:1022F0000823C9F80830EB0644BF1023C9F808309A
:10230000680644BF4023C9F80830A90700F151818D
:102310002A0600F1F9802068BFE7206802F060F922
:10232000064600283FF476AD05F53067A2464FF02B
:102330000009CDF810B008E0760809F1010907F1AD
:1023400020070AF1240A00F09B80F007F4D55FFA19
:1023500089FB2068594602F053F910F0010F8046BE
:1023600040F0B38018F0080F40F0908018F0100F84
:102370001CBF1022BA6018F0020F0ED06A69100656
:1023800004D5039B5A6842F480625A609AF8572237
:10239000012A00F083810223BB6018F0200F1CBFCC
:1023A0002023BB6018F4005F1CBF4FF40053BB60D8
:1023B000C2E7204604F01EFE58E5D2F8843043F010
:1023C0000B03C2F88430536C43F00B0353642EE7C5
:1023D0000029BFF6E6AD214684F83B2051F8380BC2
:1023E00001F0F0FF2379DCE5002184F8CC142046CD
:1023F00000F0FAFBC3E60029BFF6DCAD214684F805
:102400005F2051F85C0B01F0DDFF2379D2E5002954
:10241000BFF6D9AD214684F8832051F8800B01F036
:10242000D1FF2379CFE50029BFF6D6AD214684F848
:10243000A72051F8A40B01F0C5FF2379CCE5206853
:1024400004F5307101F0BEFF237941E5082204F262
:102450009C41284607EBC70702F00EF804EB870201
:10246000C6F30A13D2F8681220680B44C2F8683227
:10247000C7E4206804F5397101F0A4FF23792EE543
:10248000DDF810B0C6E4DDE9045BCAE42168BC4BAA
:102490000822BA6001F53062096C02EB49129942D8
:1024A000906840F2CA80030402D54FF40041916065
:1024B000204604F06BFDA17901297FF457AF206815
:1024C00004F29C4202F0CCF850E720680122BA6086
:1024D000A179D0F840E000F5306202EB4912012901
:1024E000936800F0AE80A7498E4500F00B81B9F1EA
:1024F000000F04D1D4F86422002A00F0D881594694
:10250000204604F049FD2DE7D7E90953D4F800B07F
:10251000AB4258463FF6C1AE0BF5106202EB4612D5
:1025200096469269F969CDF81CB01FFA82FCEA1A46
:102530008A4228BF0A460332BCEB920FC0F0978054
:1025400052460696CA462646C1467446904619E04B
:10255000ED1AFB69396A9D4228BF1D46B379009385
:102560004246ABB2584601F071FF3B6AA1692B4469
:102570003B62BB6A89B22B440335B1EB950FBB625A
:102580006DD37D6AAB42E3D33446069ED4F800B0E7
:10259000C846D146079B06F00F0203F500610125EE
:1025A000D3F8343805FA02F223EA020358464B63A3
:1025B00073E60498314601F00BFDFB7D012B00F022
:1025C000A9800223C9F80830A2E647F6F0731E423C
:1025D0003FF417AC07EBC70704EB8707C6F30A12F3
:1025E000D7F860122846164601F046FFD7F8603249
:1025F00020683344C7F86032D7F868323344C7F8EC
:102600006832FFF7FEBB204604F0F4FC70E520467C
:1026100004F018FD236860E5D7E9072313443B6203
:10262000002E7FF45FAE636A002B7FF45BAE206800
:1026300004F29C4202F014F854E6204604F0A6FC92
:1026400094E6190740F196804D498E457FF68AAE93
:1026500018047FF587AE4FF40041916082E634465E
:102660007D6AD4F800B0069EC8465846D1469D42C1
:102670003FF613AE8EE70029BFF6B7AC214684F8CB
:10268000CB2051F8C80B01F09DFE2379ADE4206802
:1026900004F51E7101F096FE23790BE400235946E0
:1026A0008AF85732204604F0C1FC74E60029BFF6D0
:1026B000A5AC214684F8EF2051F8EC0B01F082FE26
:1026C00023799BE4206804F5277101F07BFE2379D0
:1026D000FFF7F7BB0029BFF69AAC206884F81321F6
:1026E00004F5887101F06EFE237990E40029BFF6AD
:1026F00097AC206884F8372104F59A7101F062FEE6
:1027000023798DE41804A6D499067FF5F8AE20212C
:102710009160F4E64FF00003FB755146204604F04B
:1027200089FC4EE70029BFF684AC206884F85B2161
:1027300004F5AC7101F046FE23797AE4206804F5D3
:10274000427101F03FFE2379FFF7D0BB0029BFF6AD
:1027500079AC206884F87F2104F5BE7101F032FE67
:1027600023796FE4206804F54B7101F02BFE237987
:10277000FFF7C3BB990673D520219160F2E500BF36
:102780000A30544F0A31544F0029BFF664AC206818
:1027900084F8A32104F5D07101F014FE23795AE4E2
:1027A000206804F5547101F00DFE2379FFF7ACBBEE
:1027B0000029BFF659AC206884F8C72104F5E271FE
:1027C00001F000FE23794FE4206804F55D7101F00B
:1027D000F9FD2379FFF79FBB0029BFF64EAC2068B7
:1027E00084F8EB2104F5F47101F0ECFD237944E465
:1027F000206804F5667101F0E5FD2379FFF792BBCF
:102800000029BFF643AC206884F80F2204F5037159
:1028100001F0D8FD237939E4206804F56F7101F0E7
:10282000D1FD2379FFF785BB0029BFF638AC2068BE
:1028300084F8332204F50C7101F0C4FD23792EE4F1
:10284000206804F5787101F0BDFD2379FFF778BBAE
:10285000206804F2044101F0B5FD2379FFF777BB4E
:1028600013F0280F7FF47EAD1B498E4502D91B045F
:102870003FF5F1AE1169DAF87422C1F31201521A70
:10288000CAF86822B9F1000F7FF439AED4F86412A7
:10289000D9B1D4F860121144C4F860122FE6206850
:1028A00004F5856101F08EFD2379FFF757BB04F233
:1028B0009C42494601F0D4FE21E6206804F24C41D6
:1028C00001F080FD2379FFF750BB04F29C42012107
:1028D00001F0C6FE13E600BF0A30544F90F894246E
:1028E000012A0CD010B504460122006884F8942413
:1028F000617401F041FE002084F8940410BD0220B0
:10290000704700BF10B501F00F0E0906044627D42A
:102910004FF0240C0CFB0E0C0CF515710EEBCE0CCD
:1029200000EB8C0C00208CF855028A604A7881F804
:1029300000E00B710AB1A1F81AE0022B04BF0023DA
:102940004B7194F89434012B18D0012384F89434FB
:10295000206801F071FB002384F89434184610BD00
:10296000242000FB0E4000F114010EEBCE0004EB1E
:1029700080004FF0010C80F815C0D6E7022010BD92
:1029800001F00F0303EBC30211F0800F4FF024019D
:1029900010B500EB8202044601FB030113D101F5DF
:1029A0001571002082F855020B7094F89434012BB5
:1029B00011D00123206884F8943401F089FB0020B1
:1029C00084F8940410BD1431012050750B7094F8F4
:1029D0009434012BEDD1022010BD00BF08B501F0E9
:1029E0000F0E0EEBCE0C00EB8C0C2421CCF86432D5
:1029F0000023CCF860228CF854E2CCF868328CF8D2
:102A00005532837901FB0E01012B08BFCCF87022EF
:102A100001F515711A46006801F0BCFB002008BDE5
:102A200001F00F0101EBC10100EB8100D0F8680259
:102A3000704700BF08B501F00F0E0EEBCE0C00EB97
:102A40008C0C2421CCF824300023CCF8283001232E
:102A5000CCF820208CF814E08CF81530837901FB39
:102A60000E01012B08BFCCF8302014311A46006843
:102A700001F090FB002008BD38B5037901F00F0587
:102A8000AB4232D30B0604461CD401EBC103242213
:102A900002FB010100EB830301F51571002283F8AD
:102AA000552201238B700D7094F894249A421AD009
:102AB000206884F8943401F005FDC5B1002084F845
:102AC000940438BD05EBC503242101FB050100EB8F
:102AD0008303012214315A7501238B700D7094F811
:102AE00094249A42E4D1022038BD012038BDA17956
:102AF000206804F29C4201F0B3FDDFE738B50279AB
:102B000001F00F039A422DD303EBC30211F0800FA3
:102B10004FF02401044600EB820201FB030115D1B2
:102B200001F515710020002582F855028D700B709B
:102B300094F89434012B13D00123206884F8943442
:102B400001F0EEFC84F89454284638BD143101207D
:102B5000002550758D700B7094F89434012BEBD1D7
:102B6000022038BD012038BD10B40468636A31B951
:102B700043EA0242A26200205DF8044B7047A06A5B
:102B8000013903EB104C0BD0002303F1400004EBA0
:102B9000800001334068DBB28B420CEB104CF4D365
:102BA000403104EB81044CEA0242626000205DF88F
:102BB000044B704703680020596270470268002187
:102BC00010B480F8CC149369012443F00063C0F87A
:102BD000D8449361536D5DF8044B43F0805343F048
:102BE0000303084653657047704700BF30B583B094
:102BF000194B1A491A4D002201921A6C42F0805268
:102C00001A641B6C03F0805301930122019B0A6438
:102C1000FEF71CFA044605E0FEF718FA001BB0F5B3
:102C20007A7F16D86B68DA03F6D50C4B0C4D01226F
:102C30005A64FEF70BFA044605E0FEF707FA001B9C
:102C4000B0F57A7F05D86B689B03F6D5002003B0FA
:102C500030BD032003B030BD0038024000000E42FA
:102C600000700040002800F08780484A136803F095
:102C70000F038B422DE9F0410D46044609D2CBB239
:102C80001370136803F00F038B4202D00120BDE8DC
:102C9000F0812368980714D5590704D53C498A6800
:102CA00042F4E0528A601A0704D539498A6842F42E
:102CB00060428A603649A0688A6822F0F0020243C6
:102CC0008A60DF0721D56268012A57D0931E012B45
:102CD0002F4B1B684DD99907D8D52D4EB36823F0DB
:102CE00003031343B360FEF7B1F941F28838074696
:102CF00004E0FEF7ABF9C01B404544D8B3686268F6
:102D000003F00C03B3EB820FF3D1204A136803F0F6
:102D10000F03AB4206D9EBB21370136803F00F0335
:102D2000AB42B3D123685A0706D51949E0688A68CF
:102D300022F4E05202438A601B0707D5144A216936
:102D4000936823F4604343EAC103936000F04EF8B4
:102D50000F4A104C92681049C2F303120346A25C5A
:102D60000E48D34000680B60FEF726F90020BDE84E
:102D7000F0819801B1D489E701207047044B1B68AA
:102D80009E03AAD482E7032081E700BF003C0240F3
:102D90000038024084830008000000200800002062
:102DA000014B1868704700BF00000020044B054924
:102DB0009B68054A0868C3F38223D35CD8407047F8
:102DC000003802400000002094830008044B0549AD
:102DD0009B68054A0868C3F34233D35CD840704708
:102DE0000038024000000020948300081D4908B507
:102DF0008B6803F00C03082B1AD00C2B16D14A68F1
:102E00004B684968184813F48003C1F3881118BF50
:102E1000002302F03F02A1FB0001FDF749FA114B2C
:102E20005B68C3F30273B0FBF3F008BD0E4808BD46
:102E30004A684B6849680C4813F48003C1F3881151
:102E400018BF002302F03F02A1FB0001FDF730FA9A
:102E5000044B5B68C3F3014301335B00B0FBF3F049
:102E600008BD00BF003802400024F400002800F034
:102E7000B3812DE9F0410368DA0782B0044636D504
:102E8000A2498A6802F00C02042A00F0DF808A68F6
:102E900002F00C02082A00F0D5809C498A6802F0F2
:102EA0000C020C2A00F005816368B3F5803F00F046
:102EB0001981B3F5A02F00F09681944D2A6822F471
:102EC00080322A602A6822F480222A60002B40F097
:102ED0000E81FEF7BBF8064605E0FEF7B7F8801B4B
:102EE000642800F2FB802B689903F6D423689A07C4
:102EF0002FD5864A916811F00C0F00F098809168E8
:102F000001F00C01082900F08E8080498A6802F0E7
:102F10000C020C2A00F06281E368002B00F014819F
:102F20007B4B7A4E01221A60FEF790F8054605E0C9
:102F3000FEF78CF8401B022800F2D0803368980717
:102F4000F6D53368226923F0F80343EAC2033360FD
:102F500023681A0751D4580730D56C4A136C13F004
:102F6000805300F09A8000256A4E3368D90540F1FD
:102F7000A580A368012B00F0CF80052B00F03D81D8
:102F8000624E326F22F001023267326F22F0040289
:102F90003267002B40F0C580FEF758F841F28838C0
:102FA000074605E0FEF752F8C01B404500F2968048
:102FB000336F9807F6D4002D40F00881A069C0B1A6
:102FC000524DAB6803F00C03082B00F0CE80504B41
:102FD000002202281A6600F01A81FEF737F804462C
:102FE00004E0FEF733F8001B022877D82B689B011A
:102FF000F7D4002002B0BDE8F0816369002B2FD028
:10300000434B424E0122C3F8802EFEF71FF80546BF
:1030100004E0FEF71BF8401B02285FD8736F9B0784
:10302000F7D5236897E7526857023FF56EAF374AE6
:103030001268950725D5E268012A22D0012002B046
:10304000BDE8F0814A6857027FF527AF2F4A126822
:1030500095037FF54CAF6268002A7FF448AFEDE737
:103060002B4A2A4EC2F8803EFDF7F0FF054604E0E9
:10307000FDF7ECFF401B022830D8736F9F07F7D491
:10308000CFE7224920690A6822F0F80242EAC0022A
:103090000A601A077FF55FAFAFE70193136C43F047
:1030A00080531364136C03F080530193019B01253B
:1030B0005AE74A6856027FF5F7AEC7E7336843F42C
:1030C00080733360FDF7C2FF07463368DA053FF5CA
:1030D00050AFFDF7BBFFC01B0228F6D9032002B09A
:1030E000BDE8F081094A136843F480331360FDF7AB
:1030F000ADFF064E054604E0FDF7A8FF401B64281F
:10310000ECD833689803F7D5F0E600BF00380240EA
:103110000000474200700040554A136F43F001031E
:103120001367FDF793FF524F064641F2883804E0DB
:10313000FDF78CFF801B4045D0D83B6F9B07F7D530
:10314000002D3FF43BAF41E04A4A494E1360FDF782
:103150007DFF054604E0FDF779FF401B0228BDD83E
:1031600033689907F7D42368F3E601283FF442AFA8
:103170006B68E26903F4800191427FF45FAF226AD9
:1031800003F03F0191427FF459AF616A47F6C07284
:103190001A40B2EB811F7FF451AFA26A520803F4C8
:1031A0004031013AB1EB024F7FF448AFE16A03F0DE
:1031B0007062B2EB016F7FF441AF226B03F0E0432A
:1031C000B3EB027F14BF0120002013E7284A136CE1
:1031D00023F080531364F1E6012070474A685602D9
:1031E0003FF59AAE23E7224B1A6842F480221A6018
:1031F0001A6842F480321A6079E71D4B1A6F42F068
:1032000004021A671A6F42F001021A6789E7FDF794
:103210001DFF064605E0FDF719FF801B02283FF65B
:103220005DAF2B689901F6D4D4E90731626A0B438C
:1032300043EA8213D4E90A20216B43EA006352086F
:1032400043EA0173013A0B4943EA024301226B60EE
:103250000A66FDF7FBFE064D044605E0FDF7F6FEA7
:10326000001B02283FF63AAF2B689A01F6D5C0E65C
:103270000038024000004742002800F0938010B55B
:1032800090F84130044603F0FF02002B00F08580E7
:103290002368E068242284F84120DA6822F400528E
:1032A000DA601969A26821F440510143206919616B
:1032B00002436069D9680243E06921F4164121F0B4
:1032C0000C0102430A43DA605A69A069364922F4C4
:1032D000407202438B425A6138D0344A934235D00F
:1032E000FFF764FDE369B3F5004F35D0636819213A
:1032F0009A00A0FB01019B0FFCF7DAFF2C49A1FB10
:10330000003252094FF0640C0CFB12000001323005
:103310002368A1FB0010120102EB50129A60196998
:1033200021F490411961596921F02A015961D96844
:1033300000224FF0200C41F40051D960626484F8FF
:1033400041C084F842C01046626310BDFFF73EFDE5
:10335000E369B3F5004FC9D16268192192184FF0A3
:1033600000035B41A0FB0101FCF7A2FF104BA3FB94
:10337000002C4FEA5C1C642202FB1C02D200323299
:10338000A3FB0232C2F342111209236801EB0C11B4
:1033900002F4F8720A449A60C1E780F84020FDF711
:1033A00047FD75E7012070470010014000140140FF
:1033B0001F85EB512DE9F843054690F84100202880
:1033C00049D1894609B1144612B90120BDE8F883F4
:1033D0001E464FF000082123C5F8448085F841308F
:1033E000FDF734FEAB68AC84B3F5805FEC84074630
:1033F00034D0EB8C2C689BB293B1721C1AD122682A
:103400001306FCD5B9F1000F20D019F8013B636019
:10341000EB8C013B9BB2EB84EB8C9BB2002BECD191
:10342000711C27D123685A06FCD5202385F841302A
:103430000020CBE723681806E4D4FDF707FEC01B85
:10344000864211D386B12C68E368D6E738F8023B90
:10345000C3F30803DBE70220BDE8F8832B69002BE8
:10346000C7D1C8469946C4E7202385F841300320D8
:10347000BDE8F88323685B06D7D4FDF7E7FDC01BE2
:103480008642F1D3002EEFD02C68E368C8E700BF76
:10349000704700BF704700BF704700BF08B5806B22
:1034A0000368596990F84120212A0BD0596990F896
:1034B0004220222A1ED0436C43F010034364FFF7DE
:1034C000EBFF08BD0906F1D50022C28403F10C020E
:1034D00052E8002F22F0C00203F10C0C4CE800214E
:1034E0000029F3D1202280F84120596990F8422028
:1034F000222AE0D14A06DED50022C28503F10C0261
:1035000052E8002F22F4907203F10C0C4CE80021D9
:103510000029F3D103F1140252E8002F22F0010236
:1035200003F1140C4CE800210029F3D1026B012AAD
:1035300005D02022002380F842200363BBE703F17B
:103540000C0252E8002F22F0100203F10C0C4CE8A0
:1035500000210029F3D1ECE708B5806B0023C38577
:10356000C384FFF799FF08BD806B08B5012343634F
:10357000036B012B02D0FFF78DFF08BD818D490839
:10358000FDF7A6F808BD00BF08B50368806B1A6890
:1035900012F480722BD10368C28503F10C0252E849
:1035A000002F22F4807203F10C0C4CE8002100295A
:1035B000F3D103F1140252E8002F22F0010203F1CB
:1035C000140C4CE800210029F3D103F1140252E855
:1035D000002F22F0400203F1140C4CE800210029D6
:1035E000F3D1202280F84220026B012A07D0002369
:1035F0004363036B012B0FD0FDF762F808BD03F1A5
:103600000C0252E8002F22F0100203F10C0C4CE8DF
:1036100000210029F3D1EAE7818DFDF759F808BDB3
:103620008368B3F5805F45D0826A002B3AD0036887
:103630005B6803F07F031370826A0132C38D82627C
:10364000013B9BB2C385002B33D10268D16821F0C6
:10365000200100B5D160D16821F48071D160516939
:103660004FF0200C21F00101516180F842C043630A
:10367000016B012983B027D1036302F10C0353E8E6
:10368000003F23F0100302F10C0C4CE8003100293C
:10369000F3D11368DB0621D4818DFDF719F803B04F
:1036A0005DF804FB0369002BC1D103685B681370EC
:1036B000C2E77047036963B90368826A5B68C3F352
:1036C000080322F8023BB9E7FCF7FAFF03B05DF804
:1036D00004FB0368826A5B681370ADE70023019303
:1036E0001368019353680193019BD5E730B50368D4
:1036F0001A68D9685D6912F00F0F83B0044670D163
:10370000950602D58D0600F1B480206B01280BD000
:10371000100602D50D0600F1B680500602D54A0605
:1037200000F1D08003B030BDD506F1D5C806EFD585
:10373000002201921A6801925A680192019A5A690C
:10374000550640F11981E06B0268526892B2002A76
:10375000E8D0A18D9142E5D9E285C269B2F5807FBA
:1037600036D003F10C0252E8002F22F4807203F1EC
:103770000C0545E800210029F3D103F1140252E8B9
:10378000002F22F0010203F1140545E80021002971
:10379000F3D103F1140252E8002F22F0400203F1AA
:1037A000140545E800210029F3D1202284F84220A5
:1037B000216303F10C0252E8002F22F0100203F102
:1037C0000C0545E800210029F3D1FDF7A7FDA18DE7
:1037D00002236363E38DC91A204689B2FCF778FFA0
:1037E000A0E705F0010501F4907028438DD0D007C3
:1037F00005D5C80503D5606C40F001006064500732
:1038000032D54DB1606C40F002006064900703D582
:10381000606C40F004006064100707D501F02000E0
:10382000284303D0606C40F008006064606C00289E
:103830003FF478AF900609D5890607D594F8422061
:10384000222A03D12046FFF7EBFE23685A69616CF8
:1038500002F0400201F0080152EA01053DD1204684
:10386000FFF71AFE65645DE79007D5D5002DCFD12F
:10387000D2E790F84230222B7FF454AF03B0BDE87A
:103880003040FFF7CDBE94F84120212A7FF44AAFA3
:10389000A268B2F5805F00F0AA80226A511C216202
:1038A00012785A60E28C013A92B2E284002A7FF4E4
:1038B00039AFDA6822F08002DA60DA6842F040025A
:1038C000DA602FE7DA68202122F04002DA60204631
:1038D00084F84110FFF7DCFD24E703F10C0252E805
:1038E000002F22F4907203F10C0040E8002100291F
:1038F000F3D103F1140252E8002F22F0010203F188
:10390000140040E800210029F3D1226B012A22D0C3
:103910000022202184F8421022635A69520627D5DA
:1039200003F1140252E8002F22F0400203F11400C8
:1039300040E800210029F3D1E06BC8B1324B0365A8
:10394000FDF736FD00283FF4EDAEE06B036D03B0EC
:10395000BDE83040184703F10C0252E8002F22F076
:10396000100203F10C0040E800210029F3D1CFE759
:103970002046FFF791FDD5E6E18DE28DA08D92B254
:1039800089B2002A3FF4CEAE411A89B200293FF431
:10399000C9AE03F10C0252E8002F22F4907203F139
:1039A0000C0545E800200028F3D103F1140252E889
:1039B000002F22F0010203F1140545E80020002841
:1039C000F3D1202284F84220206303F10C0252E854
:1039D000002F22F0100203F10C0545E8002000281A
:1039E000F3D1022363632046FCF772FE9AE6226954
:1039F000002A7FF452AF226A32F8021BC1F3080199
:103A0000596022624EE700BF5935000870B5134671
:103A10000025222204464564816280F84220838585
:103A2000C06B1E4E05650A462168C6631C4E0664BF
:103A30001C4EC66482B00431FDF730FC236801954A
:103A40001A68019259682269019101995AB103F1EA
:103A50000C0252E8002F42F4807203F10C0040E89F
:103A600000210029F3D103F1140252E8002F42F0A3
:103A7000010203F1140040E800210029F3D103F111
:103A8000140252E8002F42F0400203F1140141E811
:103A900000200028F3D102B070BD00BF89350008B6
:103AA000693500089D34000890F842C0BCF1200F31
:103AB00006D139B330B583B022B9012003B030BD8F
:103AC0000220704701230363002343630446FFF78A
:103AD0009DFF0028F2D1236B012BEED122680190CB
:103AE0001368019353680193019B02F10C0353E89F
:103AF000003F43F0100302F10C0444E800310029B8
:103B0000F3D1DBE70120704784B082B00DF10C0CDB
:103B10008CE80E009DF81120012A03462ED1826BFD
:103B20009DF8181022F480328263C26822F4840265
:103B300022F04002C260C268012922F44012C26031
:103B400061D00022009202E01A69002A30DB009A5C
:103B500001320092009AB2F1706FF5D903209DF8FE
:103B60000E20012A07D19A6842F006029A609A68EC
:103B700042F020029A6002B004B07047C26800218F
:103B800042F04002C260019102E01A69002A27DB7C
:103B9000019A01320192019AB2F1706FF5D90320B6
:103BA0009DF81520BAB99A6B42F480329A63D6E731
:103BB000002200921A6942F001021A6103E01869BA
:103BC00010F00100CBD0009A01320092009AB2F1BD
:103BD000706FF4D9C2E79A6B22F480329A63BEE721
:103BE000002201921A6942F001021A6103E0186989
:103BF00010F00100D4D0019A01320192019AB2F181
:103C0000706FF4D9CBE7C26842F48012C26098E7C3
:103C1000022A03460AD04FF41051DA6822F4705297
:103C2000DA60DA680A430020DA607047264A2748DB
:103C30000A44824232D9264A26480A44824230D96E
:103C40002548A1F57402A2F5105282422CD92348CE
:103C5000A1F18372A2F5E742824228D3204A21488B
:103C60000A44824226D9204A20480A44824224D368
:103C70001F4A20480A448242CDD31F48A1F1B7729F
:103C8000A2F5585282421BD31C4A1D480A44824264
:103C900034BF4FF4E0514FF4C051BEE74FF47051C0
:103CA000BBE74FF46051B8E74FF45051B5E74FF41C
:103CB0004051B2E74FF43051AFE74FF42051ACE739
:103CC0004FF40051A9E700BF405327FFFF340C0019
:103CD000401E1BFF3F420F007F4F120020D61300F3
:103CE00060B6E5FE5FE3160000D3CEFE40771B0012
:103CF000C05BB3FEC091210020753800E05459FE2E
:103D0000E09C4100034600209A6842F001029A605C
:103D1000704700BF034600209A6822F001029A60B3
:103D2000704700BF38B5C368012923F0C04305467A
:103D3000C36018D0A9B9C36843F080430C46C36080
:103D400001E0C82C0DD00A20FDF786F96B69DB076E
:103D500004F10A04F5D4A4F1C800B0FA80F04009D7
:103D600038BD012038BDC36843F000530024C36050
:103D700001E0C82CF5D00A20FDF76EF96B69DA076F
:103D800004F10A04F5D5A4F1C800B0FA80F04009A6
:103D9000E6E700BF84B02DE9F04383B00BAC84E8C4
:103DA0000E009DF836509DF82C400022C0F80421EA
:103DB0000346C0F80821C0F80C21C0F81021C0F853
:103DC0001421C0F81821C0F81C21C0F82021C0F827
:103DD0002421C0F82821C0F82C21C0F83021C0F8D7
:103DE0003421C0F83821C0F83C21002D40F0AD80CE
:103DF000D0F8042800F5006C42F00202CCF8042050
:103E0000826B22F400128263026842F04002026078
:103E1000026842F0800202600022C3F8002E9DF882
:103E20003120012A00F09F80DCF8002042F00302DC
:103E3000CCF800200022009203E01A69002AC0F2A8
:103E4000AB80009A01320092009AB2F1706FF4D9FF
:103E500001200022019203E01A69002AC0F28B803F
:103E6000019A01320192019AB2F1706FF4D90120E6
:103E70000021CCF81010CCF81410CCF81C10E4B1D0
:103E800003F510620F464FF090494FF000684FF66F
:103E90007F3E08E017600131A1421761C2F808E0D7
:103EA00002F1200233D01668002EF3DA11B9C2F8FD
:103EB0000080F0E7C2F80090EDE7DCF8102022F473
:103EC0008072CCF8102000219DF82E2099616FF0AF
:103ED000804159611AB99A6942F010029A61996950
:103EE0003A4A0A439DF832109A6119B19A6942F030
:103EF00008029A61012D05D19A6942F0804242F090
:103F000004029A6103B0BDE8F04304B07047002199
:103F100003F530620F464FF090484FF000694FF6BE
:103F20007F3E08E017600131A1421761C2F808E046
:103F300002F12002C1D01668002EF3DA11B1C2F8E6
:103F40000080F0E7C2F80090EDE7826B42F40012C7
:103F500082630022C3F8002E9DF83120012A00F56B
:103F6000006C7FF461AF9DF82F2042BBDCF800208D
:103F7000CCF800205EE70022019210221A6103E0D3
:103F80001A69D2067FF574AF019A01320192019A43
:103F9000B2F1706FF4D96AE7002200924FF48462A4
:103FA0001A6104E0186910F020003FF452AF009A43
:103FB00001320092009AB2F1706FF3D948E7DCF851
:103FC000002042F00102CCF8002033E700383C80AA
:103FD00082B00023019302E00369002B09DB019BFF
:103FE00001330193019BB3F1706FF5D9032002B047
:103FF00070478901002341F020010193016103E032
:10400000036913F0200307D0019B01330193019B47
:10401000B3F1706FF4D9E9E7184602B0704700BFFA
:10402000D0F8083813F0060004D013F0020F14BFC4
:1040300002200F20704700BF30B44B780A78012B64
:1040400022D0D0F81C4802F00F0C4FF4803303FA52
:104050000CF3234300EB4212C0F81C38D2F8003BAB
:104060001B040ED48B68D2F8000B0979C3F30A0342
:10407000034343EA814343F0805343F40043C2F8CF
:10408000003B002030BC7047D0F81C5802F00F0CE9
:1040900003FA0CF300F500642B4300EB4210E361DC
:1040A000D0F800391C04ECD48B68D0F800490979A9
:1040B000C3F30A03234343EA814343EA825343F0B1
:1040C000805343F40043C0F8003930BC00207047EF
:1040D00010B44A780B78012A00EB43122CD0D2F8A6
:1040E000001B00291BDBD0F83C484FF4803103F063
:1040F0000F0301FA03F324EA0304C0F83C48D0F8A4
:104100001C48224924EA0303C0F81C38D2F8003BBB
:104110005DF8044B19400020C2F8001B7047D2F82C
:10412000001B41F00061C2F8001BD2F8001B41F0F7
:104130008041C2F8001BD6E7D2F8001900290BDA3B
:10414000D2F8001941F00061C2F80019D2F8001944
:1041500041F08041C2F80019D0F83C1803F00F0478
:104160000123A34021EA0301C0F83C18D0F81C4801
:10417000074924EA0303C0F81C38D2F800395DF877
:10418000044B19400020C2F8001970470078F3EF83
:10419000007833EC2DE9F0414B780D78012B3DD0C0
:1041A00000EB451C0CF530631C69E40CE4041C6155
:1041B0001C6924F0FF5424F4C0141C610C694DBB2D
:1041C000002C40F09C808C680C621D69C4F31204C2
:1041D0002C431C611C69012A44F400241C6100F07A
:1041E000A8800B79012B0CD1D0F8083813F4807F0C
:1041F000DCF8003B0CBF43F0005343F08053CCF895
:10420000003BDCF8003B43F00443CCF8003B0020CB
:10421000BDE8F081002C75D18C68D6E700EB451C19
:104220000C69DCF810690CF5106394B3F60CF60415
:104230001E611E6926F0FF5626F4C0161E61002D71
:104240007DD18E68B44284BF0E6134461E6946F447
:1042500000261E611F69C4F312063E431E610E79DB
:10426000012E00F08C80012A00F08480DCF80039F7
:1042700043F00443CCF8003944B1D0F8342805F0B9
:104280000F050123AB401343C0F834380020BDE8CC
:10429000F08126F0FF5626F4C0161E611E6946F412
:1042A00000261E611E69F60CF6041E61012A0E79B5
:1042B00055D0DCF80079012E47F00447CCF800799E
:1042C000E4D1D0F8086816F4807F1E680CBF46F071
:1042D000005646F080561E60002AD7D1A4B203349F
:1042E000A408D3D0CB6800EB053505F5805503EB6A
:1042F000840153F8042B2A609942FAD1C6E78C68EE
:104300000C6161E78D682E4E2C44013CB4FBF5F442
:10431000A4B204FB05F506EAC4441E690D623443E9
:104320001C611C69C5F312052543012A1D617FF438
:1043300058AFCA68002A3FF454AF5A6151E78F68FA
:104340001F4ED3F8108004EB070E0EF1FF3EBEFBAC
:10435000F7FE06EACE4646EA08061E617AE7CA6913
:104360005AB9012E1FD01A6842F004421A60002088
:10437000BDE8F081CA69002AF5D05A61F1E71F69EA
:1043800027F0C0471F611F69012A47F000571F61CE
:1043900006D0DCF8006946F00446CCF8006990E7E6
:1043A000CA69002AE9D1D0F8082812F4807F1A6877
:1043B0000CBF42F0005242F080521A60D3E700BFB7
:1043C0000000F81F4B7882B00022012B01920B787D
:1043D00020D000F5306000EB43100368002B02DBB7
:1043E000002002B07047036843F000630360036875
:1043F00043F0804342F21072036002E00368002B36
:10440000EEDA019B01330193019B9342F6D901201F
:1044100002B0704700F5106000EB43131A68002AE1
:10442000DEDA1A6842F000621A601A6842F08042CE
:1044300042F210711A6002E01A68002AD0DA019A7A
:1044400001320192019A8A42F6D9E0E710B49DF850
:10445000044064B903339B0809D0013200EB0230F9
:1044600001EB830351F8042B02608B42FAD1002048
:104470005DF8044B704700BF30B55FEA920E02F062
:1044800003050BD000F580548C46002301332268CD
:104490004CF8042B9E45F9D101EB8E017DB100F55E
:1044A00080506B1E02680A709BB23BB1012B4FEA31
:1044B000122018BF120C487018BF8A702944084691
:1044C00030BD00BF4A780B78012A00EB43100CD0B6
:1044D000D0F8002B002A00DBD3B9D0F8003B43F41E
:1044E0000013C0F8003B00207047D0F80029002AD4
:1044F00006DB2BB1D0F8003923F08043C0F8003937
:10450000D0F8003943F40013C0F800390020704798
:10451000D0F8003B23F08043C0F8003BDDE700BF4C
:104520004A780B78012A00EB431013D0D0F8003BF7
:1045300023F40013C0F8003B0B79023B012B01D997
:1045400000207047D0F8003B43F08053C0F8003B98
:1045500000207047D0F8003923F40013C0F8003968
:104560000B79023B012BEBD8D0F8003943F0805394
:10457000C0F8003900207047D0F8003823F4FE63FB
:10458000C0F80038D0F80038090101F4FE61194381
:10459000C0F8001800207047D0F8002E034622F023
:1045A0000302C3F8002ED3F8043800F5006123F0AD
:1045B000020300204B607047D0F8002E034622F023
:1045C0000302C3F8002ED3F8043800F5006143F06D
:1045D000020300204B6070474269806910407047B9
:1045E000D0F8183800F50060C0691840000C70471A
:1045F000D0F8183800F50060C069184080B27047E4
:1046000000EB411100F50060D1F8082B4069104023
:10461000704700BFD0F81028D0F8343800EB4110B4
:1046200001F00F01CB40DB01D0F80809DBB21343E6
:1046300018407047406900F001007047D0F8002929
:10464000034622F4FF6222F00702C3F80029D3F8E0
:10465000043800F5006143F4807300204B6070471C
:1046600010B4144B046C9C421AD800F5306000233F
:104670000361036943F400230361036943F01803F2
:1046800003610369012943F0C043036104D142611E
:10469000036843F08023036000205DF8044B7047FB
:1046A000D0F8003B002B00F53060E0DA00205DF828
:1046B000044B70470A30544F4EF6602303FB00F062
:1046C0000138FDD1704700BF2DE9F04F037883F02A
:1046D00080041F2C8FB026D90E46824606F8013B77
:1046E0000D461D2B26D8DFE813F0CA019C0193016B
:1046F0008301BF01A701DD012500D6007801730108
:1047000025002500250025002500FE00E200C3004D
:10471000B50096008C0087002500250025002500A7
:10472000250025002A0000F0A9FF044620460FB00E
:10473000BDE8F08FFF232B704FF00114F6E74FF028
:1047400000036B7043780235841C03F1FF38002BA3
:1047500054D0012301939A464346DFF8D4B3A846C8
:104760000DF124091D461EE04FF4805C0B930D9360
:104770000123CDE909C34946032358460C93FCF7AE
:10478000FFFE42462146384600F0C0FF0123002DBF
:1047900000F0F5810AF1010A3444B2446B1E002D89
:1047A00000F0FA811D4614F8017B17F03F061ABF8E
:1047B0000736F60808263A064FF00003D4D5CDE9AF
:1047C0000A330D934FF48053099349460323584607
:1047D0000C93FCF7D5FE42462146384600F096FF82
:1047E0004FF48053002D00F0E881019B33440AF11F
:1047F000010AB0440193D1E7FF236B704FF002141C
:1048000094E7447801342404FF2344F001046B70DE
:1048100004F101148AE7FF236B704378821C591E50
:10482000002BEBD00120137813F03F0303F10703B3
:104830004FEAD30301F1FF3103F1010300F0978147
:104840004D1C1A441844EED1040444F0010404F150
:1048500001146BE74378B04903F003020132C3F35C
:10486000800300200A764B764FF0021468705DE7F3
:1048700040780AF10201002800F0D581C41DE40847
:104880000134240444F0010404F1011400F0FCFE9E
:1048900000236B704AE7A04B1B78012B00F04B8381
:1048A000FF239E4C6B7020460FB0BDE8F08FD0F810
:1048B0000120002A00F0BB81994B9A4200F2BB8193
:1048C000984B1344B3FBF2F3022B1DBF964AA2FB95
:1048D00003235B08012300218F4A944C5170002070
:1048E0005360687022E790F802B04478D0F8036013
:1048F0001BF00103019308D014F001028C4818BF8B
:1049000001224FF40061FDF705F81BF0020908D001
:1049100014F00202864818BF01224FF48051FCF7C0
:10492000F9FF4FFA8BF7002FC0F2DA80002E36D055
:10493000DFF828827F4AD8F824A00BF00403049300
:104940000BF02003059363080393E3099642029357
:10495000019B28BF1646642202FB06F6A1086209E5
:10496000002B40F06983002A40F0A483002940F026
:10497000BE83B9F1000F40F086846F4CDDF80890DB
:10498000002F4FF400710ADA2046FCF7BDFF814585
:1049900005D0D8F82430A3EB0A039E42F0D84FF498
:1049A00000616348FCF7B0FF4FF480510446604853
:1049B000FCF7AAFF4FF4007106465F48FCF7A4FF1E
:1049C000C30143EA460343EA040068705B4CADE66A
:1049D00000235B4CA5F80130A8E6B0F80130C3EB2A
:1049E00003139B00013BFDD10023564C6B705AE72B
:1049F000494B5148544C00264FF400711E70FCF78F
:104A0000D3FE4B484FF4C051FCF7CEFE6E708DE6DE
:104A10004378012B40F2DD8000246C704FF00214CB
:104A200084E64378002B00F01281012B00F0068110
:104A3000FF23444C6B7079E6DFF8DCB0431C06932F
:104A40009BF80030012B00F00B818178C31C31B939
:104A5000A8E0D00606D40133013900F0A3801A780B
:104A60009407F6D40533F7E72B4B41781973418847
:104A70001982818859820022284C6A7056E6427851
:104A8000042A00F0CF82EF2A26D9F03A0F2A23D841
:104A9000DFE802F0663A2222222222222222222269
:104AA0002222342DDFF870B09BF80030012B00F08B
:104AB0004E820023A5F80130EB7003239AF804100E
:104AC0008A075BBFBAF80220013243F4802343EA2D
:104AD000824303F1011429E64FF002146B70E2E601
:104AE0001548E2094FF40071FCF714FF1EE74FF47C
:104AF00000736B800223154C6B70D4E65023AB70AF
:104B00000123134C6B70CEE6124BC5F80230042320
:104B1000114C6B70C7E600BFF4480120020006008C
:104B20003FA5AE027F4A5D05ABAAAAAA0200050016
:104B300000000240C0C62D0000080240020007002D
:104B40000300010002000300020001000400020053
:104B50000300020000E1F50506000200002000400D
:104B600040F231136B800223AC4C6B709BE64C1C03
:104B700002F1090200F109007FF455AE64E64FF43A
:104B80008052CDE90923494603235846CDE90B530A
:104B90000D95FCF7F5FCFDE5019B43EA0A4404F1A1
:104BA0000114C3E5069A9C1A2404002344F002046D
:104BB000A5F8013004F10114B8E509930323CDE908
:104BC0000B534946012358460D950A93FCF7D8FC30
:104BD0000BE6934B934801244FF000084FF4007606
:104BE0001C70032709A911230A93CDF83480099674
:104BF0000B940C97FCF7C4FC4FF4C05309A98A48E6
:104C00000993CDF82C800A940C97FCF7B9FC224646
:104C100031468448FCF77EFE834822464FF480519B
:104C2000FCF778FEF9E6814C4FF480702EE6FF2306
:104C30007F4C6B707AE501210B464DE682787D480A
:104C400002F001024FF40071FCF764FECCE68278BA
:104C5000784802F001024FF48071FCF75BFEC3E676
:104C6000754C827803920023E91CC71C23700591C0
:104C7000002A00F06F840793184602939946019525
:104C80003B4613F8018B049318F0020F00F08D805F
:104C9000B9F1000F28D0BBF810A008F01103012BC8
:104CA000554608D144E0002D00F0A6812378013D4F
:104CB000002B40F0388109A90E2000F095FD022854
:104CC000F1D04FF0000901282AD10599099A0B4625
:104CD00043F8042BB9F1000F00F0238118F0800F86
:104CE00040F098810593484618F0100300F08B803F
:104CF0007B1D18F0010FD7F801A00493BBF81270C8
:104D00001DD0BBF8105003E055B12378013D3BB9ED
:104D10000021404600F068FD0228F5D001280ED0A1
:104D2000019D2AE0002DFBD02378013D002BF7D117
:104D300009A9404600F058FD0228F3D0C3E7BBF8AC
:104D4000105003E035B32378013D1BBB09A9404651
:104D500000F04AFD02280146F4D001281AD1DBF800
:104D60001430099A13409A4500F0E1801FB123786E
:104D7000013F002BE3D0019D1120DDE9033704E062
:104D8000D20605D40137013B2ED03A789107F7D4EB
:104D90000537F8E7DBF81430099A019D13409A456E
:104DA000EBD041F01001C8B2E7E7B9F1000F40F0D5
:104DB0008180D7F80130099318F0200F07F105071B
:104DC00000F09380CBF814304FF000090120029BD3
:104DD000013302932378002B40F04782039B013B71
:104DE00003937FF44DAF019D012800F01A82069BCA
:104DF000A870FF1A059B9C1B44EA0744029B6B703A
:104E000004F1011492E418F0010FBBF810701DD0EA
:104E1000B9F1000F3CD0049F0793D8E704000200CB
:104E2000F448012000080240000002400200220075
:104E3000020005000004024010490120002F3FF449
:104E40006FAF2378013F002B7FF46AAF09A940467A
:104E500000F0CAFC0228F1D001287FF461AF18F0FD
:104E6000800F05D0059BDBF8082043F8042B059341
:104E7000DDE90473099A43F8042B05930023079393
:104E8000A5E7002F4FD02378013F002B7FF448AFD8
:104E90000021404600F0A8FC0228F2D001287FF44F
:104EA0003FAF18F0800F40F0E3810023049F079389
:104EB00081468CE7BBF810A0554607E0002D3FF473
:104EC0002FAF2378013D002B7FF42AAF09A90E20D4
:104ED00000F08AFC0228F1D001287FF421AF059B65
:104EE000099A43F8042B059363E7BBF810904D46ED
:104EF00007E0002D00F0DA802378013D002B40F020
:104F0000D08009A9404600F06FFC0228F1D00128AA
:104F100040F0C78018F0800F72D107904FF0000961
:104F200055E70593E0E6019D4FF0000925E70023D2
:104F3000049F07934BE7D0F80230099309A900209A
:104F400000F052FC0023AF4C6B70FFF7EFBB2B1D42
:104F500002934388AC4C1A469946002323701346AB
:104F6000002A00F05B81077917F0020840F0F48016
:104F7000421DCDF8048004950DF124095D46039689
:104F8000984693465BF8043B2E8A099303E066B388
:104F90002378013E4BBB4946384600F025FC0228E9
:104FA000F5D0012821D1019BB8F1010803F10103DB
:104FB0000193E7D1AB46039E049DBBF8107003E05C
:104FC00047B12378013F2BB900210E2000F00CFCE3
:104FD0000228F5D0019AD3B2C2F307286B70029B66
:104FE00085F80280E8709B1B68E5019ADDE903659E
:104FF000D3B2C2F30728F1E7AA46D146019DBCE629
:10500000059BDBF8082043F8042B079005934FF02D
:105010000009DCE6DBF808304B6001F1080305937A
:10502000484661E6794B7A4C18689B88EB800623EA
:10503000C5F802006B7036E4002940F04481002A74
:1050400040F08981002F734F0FDADFF8CCB14FF4B5
:1050500000613846FCF758FC844215D0D8F824305B
:10506000A3EB0A039E42F2D899E44FF4006138465C
:10507000FCF74AFC844200F05F82D8F82430A3EBAE
:105080000A039E42F1D88AE4B9F1000F5BD14FF4D4
:1050900000715846FCF738FC029B83423FF47FAC1A
:1050A000DCE7019D04974FF0000966E6A9460497E6
:1050B000019D62E6002940F03081002F80F2758268
:1050C000554F544CB9F1000F34D1059B43B94FF4FF
:1050D00000713846FCF718FC029B83423FF45FAC3A
:1050E000D8F82430A3EB0A039E42EBD857E4002FF4
:1050F00080F23482484F474CB9F1000F11D1049B24
:1051000043B94FF400713846FCF7FEFB029B98420E
:105110003FF445ACD8F82430A3EB0A039E42EBD809
:105120003DE44FF480512046FCF7EEFB039B984290
:10513000E5D0EFE74FF480512046FCF7E5FB039BF9
:105140008342C2D0CCE74FF480513846FCF7DCFBF9
:10515000039B83429BD081E7F90718D5BBF81080E9
:1051600023464446984608E0002C00F03B8198F81E
:105170000030013C002B40F0DB810021384600F07C
:1051800033FB0228F0D00128444640F0D18109F1D8
:10519000FF3300220DF12409DDF808800396049501
:1051A00001921D464E461DB917F0010F18BF0E277C
:1051B000BBF810902B464D46994603E0C5B12378C5
:1051C000013DABB93146384600F00EFB0228F5D060
:1051D00001284D460CD1019B01330193099B48F8EE
:1051E000043B09F1FF33002D00F0F3801D46DAE7A0
:1051F000019ACDF80880039E049DD3B2C2F307281C
:10520000ECE600BF0200060010490120A48300085C
:1052100008000200000002400008024010469046CC
:10522000DCE6B9F1000F00F0BC80BBF8108023462B
:105230000DF124094446984608E0002C3FF4D7AD10
:1052400098F80030013C002B7FF4D1AD49460E2088
:1052500000F0CAFA0228F0D001287FF4C8AD059BFF
:10526000099A43F8042B0593C1E5019D049784E551
:10527000DDE90473DBF8082043F8042B05930023D1
:1052800007938146A3E5BD4CDFF8F492DDF80CB03E
:105290004FF480512046FCF737FB83454FF40071F3
:1052A00009D1002FBFF67BAB4846FCF72DFB029BD4
:1052B00083423FF474ABD8F82430A3EB0A039E4238
:1052C000E6D8FFF76CBB002A40F00781B9F1000F68
:1052D00040F0D880DFF8A4B2DFF8A4924FF4006168
:1052E0005846FCF711FB844207D0D8F82430A3EBD2
:1052F0000A039E42F2D8FFF752BB049B002BF4D165
:10530000002FBFF64CAB4FF400714846FCF7FCFA97
:10531000029B83423FF443ABE7E7B9F1000F40F053
:105320008F80974C0BF0240B4FF40071BBF1000FF2
:1053300009D1002FBFF633AB2046FCF7E5FA029BFC
:1053400083423FF42CABD8F82430A3EB0A039E42EF
:10535000EAD8FFF724BBB9F1000F46D1DFF81CB241
:10536000DFF81C924FF400615846FCF7CDFA8442F6
:1053700007D0D8F82430A3EB0A039E42F2D8FFF7F7
:105380000EBB059B002BF4D1002FBFF608AB4FF4EA
:1053900000714846FCF7B8FA029B83423FF4FFAA2B
:1053A000E7E7079B002B3FF422ADBBF8108009E034
:1053B000B8F1000F3FF41BAD237808F1FF38002B44
:1053C0007FF415AD00210E2000F00EFA0228EFD078
:1053D0000DE5019ACDF80880039E049DD3B2C2F377
:1053E0000728FBE5A0462346F8E5DFF89091DFF8B3
:1053F00090B14FF400614846FCF786FA84424FF4BE
:10540000805107D0D8F82430A3EB0A039E42F0D88D
:10541000FFF7C5BA4846FCF777FA039B8342F1D100
:10542000059B002BEED1002FBFF6B9AA4FF40071F7
:105430005846FCF769FA029B83423FF4B0AAE1E7C1
:10544000DFF838914E4C4FF480514846FCF75CFA37
:10545000039B98420ED11BF0240F0BD1002FBFF6F7
:105460009EAA4FF400712046FCF74EFA029B984228
:105470003FF495AAD8F82430A3EB0A03B342E2D351
:10548000FFF78DBADFF8F490DFF8F4B04FF4006165
:105490004846FCF739FA84424FF4805107D0D8F8D7
:1054A0002430A3EB0A039E42F0D8FFF778BA4846AF
:1054B000FCF72AFA039B8342F1D1049B002BEED127
:1054C000002FBFF66CAA4FF400715846FCF71CFA87
:1054D000029B83423FF463AAE1E7002F52DA274F91
:1054E0004FF400613846FCF70FFA844207D0D8F831
:1054F0002430A3EB0A039E42F2D8FFF750BAB9F169
:10550000000F0CD11BF0240FF1D11D484FF4007196
:10551000FCF7FAF9029B83423FF441AAE7E74FF414
:1055200080513846FCF7F0F9039B8342EAD0DEE76E
:105530004FF00008434651E5B9F1000F3FF42FAAA0
:105540004FF480513846FCF7DFF9039B83423FF468
:1055500026AA92E5039B0293184648E4074C4F465F
:1055600097BB049B002B3FF41AAAD8F82430A3EB76
:105570000A039E42F4D8FFF712BA00BF00000240AF
:1055800000080240DFF890800BF024074FF4006120
:105590004046FCF7B9F984421FD01E4B5B6AA3EB6F
:1055A0000A039E42F2D8FFF7FAB91B4C4F46DFB907
:1055B000059B002B3FF4F3A9D8F82430A3EB0A0392
:1055C0009E42F4D8FFF7EBB94FF480512046FCF728
:1055D0009BF9039B8342C4D0C7E7B9F1000F0CD1FC
:1055E000002FDAD1FFF7DBB94FF480512046FCF7EA
:1055F0008BF9039B8342DBD0DEE74FF480514046BA
:10560000FCF782F9039B8342C7D1002FC5D1FFF776
:10561000C6B900BF0020004000000240F8B5047881
:105620007F2C03D0BDE8F840FFF74EB80D46861C2E
:1056300005F8024B44784C704FF0021754B12946DC
:105640003046FFF741F8013C074406EB104615FAD7
:1056500080F5F4D13846F8BD074B0022012010B484
:10566000072164241A7318831A80C3E9044259601D
:105670005DF8044B704700BFF448012003780B70BD
:105680004FF00110704700BF002839D02DE9F047D6
:105690000027DFF874901B4D8846461E3C4625E0E7
:1056A000013F012214EA020A4FF48051284602D138
:1056B00052464FF48051FCF72DF900224FF400615F
:1056C0002846FCF727F9D9F80430013BFDD1012227
:1056D0004FF400612846FCF71DF9D9F80430013B6E
:1056E000FDD1013E731C4FEA540407D04346002FFE
:1056F000D6D113F8014B07279846D2E7BDE8F087CB
:10570000704700BF00000240F44801202DE9F04737
:1057100010F03F0408BF402403062ED5304EDFF8BA
:10572000C48091464FF0000A082701E0002C50D0B9
:1057300000224FF400614046FCF7ECF87368013B2F
:10574000FDD14FF480514046FCF7DEF801220546BA
:105750004FF400614046FCF7DDF87368013BFDD172
:10576000ED01013F04F1FF3445EA5A0ADED109F8A0
:1057700001AB002CD6D1BDE8F087194EDFF864905C
:10578000884618F8015BA4F1080701E0002CF2D06C
:1057900005F0010248464FF48051FCF7BBF80022A7
:1057A0004FF400614846FCF7B5F87368013BFDD142
:1057B00001224FF400614846FCF7ACF87368013BE6
:1057C000FDD1013CBC424FEA5505DFD1002CD8D1B8
:1057D000D1E72AFA07FA89F800A0BDE8F08700BFF0
:1057E000F4480120000002402DE9F04F924C89B0AE
:1057F0006578019106460122002D00F021818F4835
:105800004FF48051FCF786F88C4800224FF4006179
:10581000FCF780F8894801224FF40061FCF77AF820
:10582000864806F001024FF48051FCF773F8834874
:1058300000224FF40061FCF76DF8804801224FF41C
:105840000061FCF767F87D48C6F340024FF48051D1
:10585000FCF760F8794800224FF40061FCF75AF831
:10586000764801224FF40061FCF754F87348C6F300
:1058700080024FF48051FCF74DF8704800224FF43D
:105880000061FCF747F86D4801224FF40061FCF716
:1058900041F875086948C6F3C0024FF48051FCF71F
:1058A00039F805EB9605654800224FF40061FCF7D6
:1058B00031F8354461484FEAD60801224FF40061BF
:1058C000FCF728F805EB08025C4802F001024FF4EF
:1058D0008051FCF71FF8594800224FF40061FCF793
:1058E00019F8564801224FF40061FCF713F85348A9
:1058F00000224FF48051FCF70DF8504800224FF47D
:105900000061FCF707F84D4801224FF40061FCF7F5
:1059100001F84A4801224FF48051FBF7FBFF47484A
:1059200000224FF40061FBF7F5FF444801224FF4D9
:105930000061FBF7EFFF0023CDE9033306930DF180
:1059400008084FF4805302933C48032341460593D3
:10595000FBF716FE257E75B1384F00224FF400612B
:105960003846FBF7D7FF01224FF400613846FBF7BA
:10597000D1FF013DF1D1002230484FF40061FBF727
:10598000C9FF4FF480512D48FBF7BEFF012281462D
:105990004FF400612948FBF7BDFF002227484FF470
:1059A0000061FBF7B7FF4FF480512448FBF7ACFFD1
:1059B000012282464FF400612048FBF7ABFF002232
:1059C0001E484FF40061FBF7A5FF4FF480511B48C0
:1059D000FBF79AFF0546AD0045EA4A051748012244
:1059E0004FF4006145EA0905FBF794FF012D00F033
:1059F000A181022D00F0F582042D00F0F282247EB8
:105A00000E4E213400224FF400613046FBF782FF36
:105A100001224FF400613046FBF77CFF013CF1D1DD
:105A200001234FF48052CDE90223044804944146F7
:105A30000323069470E100BFF448012000000240F7
:105A40008A484FF48051FBF765FF88482A464FF497
:105A50000061FBF75FFF6368013BFDD183480122D2
:105A60004FF40061FBF756FF6368013BFDD17F48AF
:105A700006F001024FF48051FBF74CFF7B482A46A9
:105A80004FF40061FBF746FF6368013BFDD17748A7
:105A900001224FF40061FBF73DFF6368013BFDD13C
:105AA0007248C6F340024FF48051FBF733FF6F4852
:105AB0002A464FF40061FBF72DFF4FEA5608636852
:105AC000013BFDD1694801224FF40061FBF722FF41
:105AD0006368013BFDD16548C6F380024FF48051F5
